:100000000C942A000C94C5000C9485000C944700B5
:100010000C9447000C9447000C9447000C94470044
:100020000C9447000C9447000C9447000C94470034
:100030000C9447000C9447000C9447000C94470024
:100040000C9447000C9447000C9447000C94470014
:100050000C94470011241FBECFE5D8E0DEBFCDBF12
:1000600014E0A0E6B0E0EEEBF9E002C005900D92DE
:10007000A03FB107D9F724E0A0EFB4E001C01D9282
:10008000AE3FB207E1F70E947B020C94DD040C94B2
:10009000000082E08BB988E18AB986E880BD8CE0F7
:1000A00089B910BC08955D9BFECF8CB90895CF939C
:1000B000DF93EC018881882331F021960E94530060
:1000C00089918111FBCFDF91CF910895AC01161674
:1000D000170664F4FC019C01260F371F5F9BFECFBF
:1000E0009CB19193E217F307C9F702C060E070E09A
:1000F000FA01E60FF71F1082089581E683BFBB9ACD
:10010000089581E685BD8F9A08951F920F920FB6CC
:100110000F9211242F933F934F935F936F937F938D
:100120008F939F93AF93BF93EF93FF938091F604C8
:100130009091F70401969093F7048093F6048091D0
:10014000F6049091F7044AE068EF74E00E94A0047E
:1001500080E990E00E94570088EF94E00E945700E9
:1001600083EF90E00E945700FF91EF91BF91AF9114
:100170009F918F917F916F915F914F913F912F91BF
:100180000F900FBE0F901F9018951F920F920FB6F1
:100190000F9211242F933F934F935F936F937F930D
:1001A0008F939F93AF93BF93EF93FF938091F4044A
:1001B0009091F50401969093F5048093F404809156
:1001C000F4049091F5044AE068EF74E00E94A00402
:1001D00081EA90E00E94570088EF94E00E94570067
:1001E00083EF90E00E945700FF91EF91BF91AF9194
:1001F0009F918F917F916F915F914F913F912F913F
:100200000F900FBE0F901F901895CF93DF93CDB72F
:10021000DEB72F970FB6F894DEBF0FBECDBF10929A
:10022000F7041092F60483EB90E00E9457008CEDE7
:1002300090E00E94570085EF90E00E9457008EE00A
:1002400091E00E94570063E070E0CE0101960E94A9
:1002500066001C82CE0101960E948204C19AC59A52
:10026000C298C4982091F6043091F70428173907F2
:10027000CCF3C198C498C298C5981092F704109214
:10028000F6042F960FB6F894DEBF0FBECDBFDF91F8
:10029000CF910895CF93DF93CDB7DEB72F970FB6E9
:1002A000F894DEBF0FBECDBF1092F5041092F40497
:1002B00083EB90E00E9457008CED90E00E94570085
:1002C00085EF90E00E9457008EE091E00E94570079
:1002D00063E070E0CE0101960E9466001C82CE01B0
:1002E00001960E948204C49AC29AC198C59820912E
:1002F000F4043091F50428173907CCF3C198C49859
:10030000C298C5981092F5041092F4042F960FB677
:10031000F894DEBF0FBECDBFDF91CF91089510924C
:10032000F7041092F6048BE191E00E9457002FE34E
:100330008DE093E0215080409040E1F700C0000044
:100340008091F2049091F30401969093F3048093CA
:10035000F2042FE38DE093E0215080409040E1F7DC
:1003600000C00000C19AC59AC298C4988091F60452
:100370009091F7040597D4F3C198C498C298C59892
:100380001092F7041092F6042FE38DE093E02150D1
:1003900080409040E1F700C0000008951092F504FD
:1003A0001092F40486E391E00E9457002FE38DE061
:1003B00093E0215080409040E1F700C00000809120
:1003C000F0049091F10401969093F1048093F0046D
:1003D0002FE38DE093E0215080409040E1F700C092
:1003E0000000C49AC29AC198C5988091F404909173
:1003F000F5040597D4F3C198C498C298C598109293
:10040000F5041092F4042FE38DE093E02150804036
:100410009040E1F700C000000895C89B0CC082E541
:1004200091E00E94570086B3C198C498C298C598BD
:10043000C899FECF88BB0895EF92FF920F931F9348
:10044000CF93DF93CDB7DEB72A970FB6F894DEBF10
:100450000FBECDBF7C011092F7041092F6041092EB
:10046000F5041092F4044AE0BE016F5F7F4F0E94D2
:10047000A0048FE691E00E945700CE0101960E94F1
:10048000570088E791E00E9457008701000F111F75
:10049000000F111F000F111F0E191F09C19AC49AD6
:1004A000C298C5988091F6049091F704801791073F
:1004B0004CF40E940D028091F6049091F70480178D
:1004C0009107BCF3C198C498C298C5981092F704DC
:1004D0001092F6041092F5041092F4042A960FB6C6
:1004E000F894DEBF0FBECDBFDF91CF911F910F916A
:1004F000FF90EF900895CF93DF93CDB7DEB7689765
:100500000FB6F894DEBF0FBECDBF0E9449001ABAE5
:100510000E947D0081ED8CBF0E94810088ED83BD2B
:10052000BC9A80EC8BBF8FE085BF78942FE38DE081
:1005300093E0215080409040E1F700C000000F2E72
:10054000F5E5CF2EF02D912C0F2EF2E5DF2EF02DBC
:10055000A12CBB24BA940F2EF4E66F2E712CF02D33
:100560000E940D0285E891E00E9457008AE991E01F
:100570000E9457008EEB91E00E94570083EE91E0BD
:100580000E94570081E092E00E9457008DE192E0C6
:100590000E9457008EE392E00E94570080E692E0AE
:1005A0000E94570089E792E00E9457008CEA92E08F
:1005B0000E94570085ED92E00E94570061E070E0D4
:1005C000CE0101960E9466001A8289818093FD0403
:1005D0008091FD040E94530083EF90E00E94570039
:1005E0008091FD04873761F482EE92E00E9457000B
:1005F00088EE92E00E945700C19AC49AC298C598AA
:100600008091FD04833741F483E093E00E9457001A
:10061000C29AC59AC198C4988091FD04883781F424
:100620008AE293E00E945700C198C498C298C59886
:100630001092F7041092F6041092F5041092F4044C
:100640008091FD04813631F488E493E00E945700E4
:100650000E948F018091FD04843631F484E693E09A
:100660000E9457000E94CE018091FD048437C1F49E
:1006700081E893E00E94570063E070E0CE010196AC
:100680000E9466001C82CE0101960E948204D82E30
:10069000A92E8B9DC0011124B3010E945A0463BD91
:1006A0008091FD048937C1F480EA93E00E945700ED
:1006B00063E070E0CE0101960E9466001C82CE01CC
:1006C00001960E948204C82E992E8B9DC001112490
:1006D000B3010E945A046CBF8091FD048F3641F52E
:1006E0008FEB93E00E9457004AE0BE016F5F7F4F9F
:1006F0008D2D9A2D0E94A00483ED93E00E94570057
:10070000CE0101960E9457004AE0BE016F5F7F4F05
:100710008C2D992D0E94A00489ED93E00E94570032
:10072000CE0101960E94570083EF90E00E9457008F
:100730008091FD048237B9F481EE93E00E94570066
:1007400061E070E0CE0101960E94660089818C36DE
:1007500019F40E940501F0CF823719F40E944A0172
:10076000EBCF853649F78091FD048A3609F084C0C5
:100770008DE194E00E9457008DE394E00E945700C1
:1007800067E070E0CE0101960E94660088E794E081
:100790000E945700CE0101960E94570083EF90E01F
:1007A0000E94570089818D8B8A818E8B8B818F8BE4
:1007B0008D81898B8E818A8B8F818B8B188E1C8A81
:1007C00086E894E00E945700CE0145960E945700AB
:1007D00083EF90E00E9457008BE894E00E9457005E
:1007E000CE0141960E945700CE0145960E94820498
:1007F0008C01CE0141960E9482047C011123B4F049
:100800000E94CE01C8010E941C02FF2034F00E9409
:100810008F01C7010E941C0221C00E94CE018827BF
:1008200099278E199F090E941C0218C00E948F01EF
:1008300088279927801B910B0E941C02FF2034F00F
:100840000E94CE01C7010E941C0208C00E948F01B5
:10085000882799278E199F090E941C0280E994E03D
:100860000E94570061E070E0CE0101960E94660090
:1008700089818E3609F080CF8091FD048D3609F094
:100880006FCE89EB94E00E94570063E070E0CE01E8
:1008900001960E946600CE0101960E9482041816FD
:1008A00019062CF08CED94E00E94570059CE0E945E
:1008B0001C0256CE97FB072E16F4009407D077FD46
:1008C00009D00E946E0407FC05D03EF490958195F6
:1008D0009F4F0895709561957F4F0895AA1BBB1B8C
:1008E00051E107C0AA1FBB1FA617B70710F0A61B30
:1008F000B70B881F991F5A95A9F780959095BC0151
:10090000CD010895FC0188279927E8942191203290
:10091000E9F3293010F02E30C8F32B3241F02D329C
:1009200039F4689404C00E94AB04820F911D219198
:1009300020532A30C0F31EF4909581959F4F08955F
:10094000BB274A3031F4992322F4BDE2909581957A
:100950009F4F0C94B4047AE0979F902D879F802D31
:10096000910D11240895BB27FB015527AA27880F55
:10097000991FAA1FA41710F0A41B83955051B9F713
:10098000A05DAA3308F0A95DA193009779F7B11192
:10099000B1931192CB010C94CD04DC01FC01672FC3
:1009A00071917723E1F7329704C07C916D93708346
:0E09B0006291AE17BF07C8F30895F894FFCF09
:1009BE002020202020202020202020202020202029
:1009CE002020202020202020202020202020202019
:1009DE002020202020202020202020202020200029
:1009EE004C65667420526F746174696F6E733A2031
:1009FE0000526967687420526F746174696F6E7308
:100A0E003A2000496E70757420726F746174696F4C
:100A1E006E20646567726565206173206D756C74F8
:100A2E0069706C65206F662031380A00466F72203F
:100A3E0033362064656772656520696E7075742043
:100A4E003030320A00466F7220393020646567728A
:100A5E00656520696E707574203030350A00596FE7
:100A6E00757220496E7075743A20000A526F746167
:100A7E0074696E672039302064656772656573200E
:100A8E006C6566740A000A526F746174696E672031
:100A9E0039302064656772656573207269676874A2
:100AAE000A00636C65617220746865206F627374EE
:100ABE0061636C6520696E2D66726F6E740A000A32
:100ACE004D6F76696E6720002066656574206168DB
:100ADE006561640A000A0A57656C636F6D65207460
:100AEE006F2070726F6D70740A00456E746572209F
:100AFE007420746F206368616E6765206C65667420
:100B0E0020776865656C2073706565640A00456EB4
:100B1E00746572207920746F206368616E6765203A
:100B2E00726967687420776865656C207370656597
:100B3E00640A00456E746572206F20746F207669AA
:100B4E00657720776865656C207370656564730AD8
:100B5E0000456E746572207220666F7220726F741B
:100B6E0061746520746865206361720A00456E7455
:100B7E006572207720746F206D6F766520746865BE
:100B8E002063617220666F72776172640A00456E2F
:100B9E00746572207320746F206D6F766520746893
:100BAE006520636172206261636B776172640A0013
:100BBE00456E746572207820746F2073746F702088
:100BCE00746865206361720A00456E746572206DEB
:100BDE0020746F206D6F7665207468652063617276
:100BEE0020666F727761726420666F722073706513
:100BFE00636966696320756E69740A00456E746573
:100C0E0072206A20746F2073746172742074686528
:100C1E002064656C6976657279206F706572617497
:100C2E00696F6E0A00596F757220696E7075743A2D
:100C3E002000496E20770A00746865206361722077
:100C4E0077696C6C206D6F766520666F7277617256
:100C5E00640A00696E73696465205320736F207493
:100C6E006865206361722077696C6C206D6F7665A4
:100C7E00206261636B7761726400696E736964658B
:100C8E00205820736F207468652063617220776925
:100C9E006C6C2073746F70005468652063617220F1
:100CAE0077696C6C206E6F77207475726E206C6530
:100CBE0066740A00546865206361722077696C6CF3
:100CCE00206E6F77207475726E2072696768740A71
:100CDE00000A4769766520746865207370656564DF
:100CEE00206F66206C65667420776865656C3A00C7
:100CFE004769766520746865207370656564206F3A
:100D0E006620726967687420776865656C3A004979
:100D1E006E204F2073686F77696E672073706565FC
:100D2E00640A006C6566743A002072696768743AEA
:100D3E00000A456E746572206C20746F20726F7499
:100D4E00617465206C65667420616E642072207417
:100D5E006F20726F74617465207269676874206F9A
:100D6E0072206520746F20657869740A000A5765D1
:100D7E006C636F6D6520746F20746865206F70658D
:100D8E00726174696F6E206D6F64650A00476976D3
:100D9E006520796F757220636F6F7264696E61740E
:100DAE006520696E20782C207920666F726D6174D3
:100DBE00282065782E203030322C303033292069AF
:100DCE006E20666565740A004741592042554646B5
:100DDE004552203D200078203D200079203D200006
:100DEE00446F20796F752077616E7420746F206365
:100DFE006F6E74696E7565206F7065726174696F60
:100E0E006E3F0A20792F6E0A004769766520756E4F
:100E1E00697420696E206665657420746F206D6F2D
:100E2E00766520666F72776172640A0053656E6430
:100E3E0020706F73697469766520756E69740A0027
:00000001FF
